{
  "contractName": "StarNotary",
  "abi": [
    {
      "inputs": [],
      "stateMutability": "nonpayable",
      "type": "constructor"
    },
    {
      "anonymous": false,
      "inputs": [
        {
          "indexed": true,
          "internalType": "address",
          "name": "owner",
          "type": "address"
        },
        {
          "indexed": true,
          "internalType": "address",
          "name": "approved",
          "type": "address"
        },
        {
          "indexed": true,
          "internalType": "uint256",
          "name": "tokenId",
          "type": "uint256"
        }
      ],
      "name": "Approval",
      "type": "event"
    },
    {
      "anonymous": false,
      "inputs": [
        {
          "indexed": true,
          "internalType": "address",
          "name": "owner",
          "type": "address"
        },
        {
          "indexed": true,
          "internalType": "address",
          "name": "operator",
          "type": "address"
        },
        {
          "indexed": false,
          "internalType": "bool",
          "name": "approved",
          "type": "bool"
        }
      ],
      "name": "ApprovalForAll",
      "type": "event"
    },
    {
      "anonymous": false,
      "inputs": [
        {
          "indexed": true,
          "internalType": "address",
          "name": "from",
          "type": "address"
        },
        {
          "indexed": true,
          "internalType": "address",
          "name": "to",
          "type": "address"
        },
        {
          "indexed": true,
          "internalType": "uint256",
          "name": "tokenId",
          "type": "uint256"
        }
      ],
      "name": "Transfer",
      "type": "event"
    },
    {
      "inputs": [
        {
          "internalType": "address",
          "name": "to",
          "type": "address"
        },
        {
          "internalType": "uint256",
          "name": "tokenId",
          "type": "uint256"
        }
      ],
      "name": "approve",
      "outputs": [],
      "stateMutability": "nonpayable",
      "type": "function"
    },
    {
      "inputs": [
        {
          "internalType": "address",
          "name": "owner",
          "type": "address"
        }
      ],
      "name": "balanceOf",
      "outputs": [
        {
          "internalType": "uint256",
          "name": "",
          "type": "uint256"
        }
      ],
      "stateMutability": "view",
      "type": "function",
      "constant": true
    },
    {
      "inputs": [
        {
          "internalType": "uint256",
          "name": "tokenId",
          "type": "uint256"
        }
      ],
      "name": "getApproved",
      "outputs": [
        {
          "internalType": "address",
          "name": "",
          "type": "address"
        }
      ],
      "stateMutability": "view",
      "type": "function",
      "constant": true
    },
    {
      "inputs": [
        {
          "internalType": "address",
          "name": "owner",
          "type": "address"
        },
        {
          "internalType": "address",
          "name": "operator",
          "type": "address"
        }
      ],
      "name": "isApprovedForAll",
      "outputs": [
        {
          "internalType": "bool",
          "name": "",
          "type": "bool"
        }
      ],
      "stateMutability": "view",
      "type": "function",
      "constant": true
    },
    {
      "inputs": [],
      "name": "name",
      "outputs": [
        {
          "internalType": "string",
          "name": "",
          "type": "string"
        }
      ],
      "stateMutability": "view",
      "type": "function",
      "constant": true
    },
    {
      "inputs": [
        {
          "internalType": "uint256",
          "name": "tokenId",
          "type": "uint256"
        }
      ],
      "name": "ownerOf",
      "outputs": [
        {
          "internalType": "address",
          "name": "",
          "type": "address"
        }
      ],
      "stateMutability": "view",
      "type": "function",
      "constant": true
    },
    {
      "inputs": [
        {
          "internalType": "address",
          "name": "from",
          "type": "address"
        },
        {
          "internalType": "address",
          "name": "to",
          "type": "address"
        },
        {
          "internalType": "uint256",
          "name": "tokenId",
          "type": "uint256"
        }
      ],
      "name": "safeTransferFrom",
      "outputs": [],
      "stateMutability": "nonpayable",
      "type": "function"
    },
    {
      "inputs": [
        {
          "internalType": "address",
          "name": "from",
          "type": "address"
        },
        {
          "internalType": "address",
          "name": "to",
          "type": "address"
        },
        {
          "internalType": "uint256",
          "name": "tokenId",
          "type": "uint256"
        },
        {
          "internalType": "bytes",
          "name": "_data",
          "type": "bytes"
        }
      ],
      "name": "safeTransferFrom",
      "outputs": [],
      "stateMutability": "nonpayable",
      "type": "function"
    },
    {
      "inputs": [
        {
          "internalType": "address",
          "name": "operator",
          "type": "address"
        },
        {
          "internalType": "bool",
          "name": "approved",
          "type": "bool"
        }
      ],
      "name": "setApprovalForAll",
      "outputs": [],
      "stateMutability": "nonpayable",
      "type": "function"
    },
    {
      "inputs": [
        {
          "internalType": "uint256",
          "name": "",
          "type": "uint256"
        }
      ],
      "name": "starsForSale",
      "outputs": [
        {
          "internalType": "uint256",
          "name": "",
          "type": "uint256"
        }
      ],
      "stateMutability": "view",
      "type": "function",
      "constant": true
    },
    {
      "inputs": [
        {
          "internalType": "bytes4",
          "name": "interfaceId",
          "type": "bytes4"
        }
      ],
      "name": "supportsInterface",
      "outputs": [
        {
          "internalType": "bool",
          "name": "",
          "type": "bool"
        }
      ],
      "stateMutability": "view",
      "type": "function",
      "constant": true
    },
    {
      "inputs": [],
      "name": "symbol",
      "outputs": [
        {
          "internalType": "string",
          "name": "",
          "type": "string"
        }
      ],
      "stateMutability": "view",
      "type": "function",
      "constant": true
    },
    {
      "inputs": [
        {
          "internalType": "uint256",
          "name": "",
          "type": "uint256"
        }
      ],
      "name": "tokenIdToStarInfo",
      "outputs": [
        {
          "internalType": "string",
          "name": "name",
          "type": "string"
        }
      ],
      "stateMutability": "view",
      "type": "function",
      "constant": true
    },
    {
      "inputs": [
        {
          "internalType": "uint256",
          "name": "tokenId",
          "type": "uint256"
        }
      ],
      "name": "tokenURI",
      "outputs": [
        {
          "internalType": "string",
          "name": "",
          "type": "string"
        }
      ],
      "stateMutability": "view",
      "type": "function",
      "constant": true
    },
    {
      "inputs": [
        {
          "internalType": "address",
          "name": "from",
          "type": "address"
        },
        {
          "internalType": "address",
          "name": "to",
          "type": "address"
        },
        {
          "internalType": "uint256",
          "name": "tokenId",
          "type": "uint256"
        }
      ],
      "name": "transferFrom",
      "outputs": [],
      "stateMutability": "nonpayable",
      "type": "function"
    },
    {
      "inputs": [
        {
          "internalType": "string",
          "name": "_name",
          "type": "string"
        },
        {
          "internalType": "uint256",
          "name": "_tokenId",
          "type": "uint256"
        }
      ],
      "name": "createStar",
      "outputs": [],
      "stateMutability": "nonpayable",
      "type": "function"
    },
    {
      "inputs": [
        {
          "internalType": "uint256",
          "name": "_tokenId",
          "type": "uint256"
        },
        {
          "internalType": "uint256",
          "name": "_price",
          "type": "uint256"
        }
      ],
      "name": "putStarUpForSale",
      "outputs": [],
      "stateMutability": "nonpayable",
      "type": "function"
    },
    {
      "inputs": [
        {
          "internalType": "uint256",
          "name": "_tokenId",
          "type": "uint256"
        }
      ],
      "name": "buyStar",
      "outputs": [],
      "stateMutability": "payable",
      "type": "function",
      "payable": true
    },
    {
      "inputs": [
        {
          "internalType": "uint256",
          "name": "_tokenId",
          "type": "uint256"
        }
      ],
      "name": "lookUptokenIdToStarInfo",
      "outputs": [
        {
          "internalType": "string",
          "name": "",
          "type": "string"
        }
      ],
      "stateMutability": "view",
      "type": "function",
      "constant": true
    },
    {
      "inputs": [
        {
          "internalType": "uint256",
          "name": "_tokenId1",
          "type": "uint256"
        },
        {
          "internalType": "uint256",
          "name": "_tokenId2",
          "type": "uint256"
        }
      ],
      "name": "exchangeStars",
      "outputs": [],
      "stateMutability": "nonpayable",
      "type": "function"
    },
    {
      "inputs": [
        {
          "internalType": "address",
          "name": "_to1",
          "type": "address"
        },
        {
          "internalType": "uint256",
          "name": "_tokenId",
          "type": "uint256"
        }
      ],
      "name": "transferStar",
      "outputs": [],
      "stateMutability": "nonpayable",
      "type": "function"
    }
  ],
  "bytecode": "0x60806040523480156200001157600080fd5b506040518060400160405280600a81526020017f537461724e6f74617279000000000000000000000000000000000000000000008152506040518060400160405280600481526020017f5354524e00000000000000000000000000000000000000000000000000000000815250816000908051906020019062000096929190620000b8565b508060019080519060200190620000af929190620000b8565b505050620001cd565b828054620000c69062000168565b90600052602060002090601f016020900481019282620000ea576000855562000136565b82601f106200010557805160ff191683800117855562000136565b8280016001018555821562000136579182015b828111156200013557825182559160200191906001019062000118565b5b50905062000145919062000149565b5090565b5b80821115620001645760008160009055506001016200014a565b5090565b600060028204905060018216806200018157607f821691505b602082108114156200019857620001976200019e565b5b50919050565b7f4e487b7100000000000000000000000000000000000000000000000000000000600052602260045260246000fd5b61322480620001dd6000396000f3fe60806040526004361061012a5760003560e01c806342842e0e116100ab578063a22cb4651161006f578063a22cb46514610405578063b88d4fde1461042e578063c87b56dd14610457578063d7830ccb14610494578063e7152a5c146104d1578063e985e9c5146104fa5761012a565b806342842e0e1461030e5780636352211e1461033757806370a082311461037457806395d89b41146103b15780639697c0a1146103dc5761012a565b806315e0afa5116100f257806315e0afa51461023a5780631967fd981461026357806323b872dd146102a05780632f1c34ef146102c9578063316a4361146102e55761012a565b806301ffc9a71461012f5780630564b1301461016c57806306fdde03146101a9578063081812fc146101d4578063095ea7b314610211575b600080fd5b34801561013b57600080fd5b50610156600480360381019061015191906121e2565b610537565b6040516101639190612b1c565b60405180910390f35b34801561017857600080fd5b50610193600480360381019061018e9190612288565b610619565b6040516101a09190612db9565b60405180910390f35b3480156101b557600080fd5b506101be610631565b6040516101cb9190612b37565b60405180910390f35b3480156101e057600080fd5b506101fb60048036038101906101f69190612288565b6106c3565b6040516102089190612ab5565b60405180910390f35b34801561021d57600080fd5b50610238600480360381019061023391906121a6565b610748565b005b34801561024657600080fd5b50610261600480360381019061025c91906122b1565b610860565b005b34801561026f57600080fd5b5061028a60048036038101906102859190612288565b6109c5565b6040516102979190612b37565b60405180910390f35b3480156102ac57600080fd5b506102c760048036038101906102c291906120a0565b610a6b565b005b6102e360048036038101906102de9190612288565b610acb565b005b3480156102f157600080fd5b5061030c600480360381019061030791906122b1565b610c48565b005b34801561031a57600080fd5b50610335600480360381019061033091906120a0565b610cda565b005b34801561034357600080fd5b5061035e60048036038101906103599190612288565b610cfa565b60405161036b9190612ab5565b60405180910390f35b34801561038057600080fd5b5061039b6004803603810190610396919061203b565b610dac565b6040516103a89190612db9565b60405180910390f35b3480156103bd57600080fd5b506103c6610e64565b6040516103d39190612b37565b60405180910390f35b3480156103e857600080fd5b5061040360048036038101906103fe9190612234565b610ef6565b005b34801561041157600080fd5b5061042c6004803603810190610427919061216a565b610f4c565b005b34801561043a57600080fd5b50610455600480360381019061045091906120ef565b610f62565b005b34801561046357600080fd5b5061047e60048036038101906104799190612288565b610fc4565b60405161048b9190612b37565b60405180910390f35b3480156104a057600080fd5b506104bb60048036038101906104b69190612288565b61106b565b6040516104c89190612b37565b60405180910390f35b3480156104dd57600080fd5b506104f860048036038101906104f391906121a6565b611113565b005b34801561050657600080fd5b50610521600480360381019061051c9190612064565b61119e565b60405161052e9190612b1c565b60405180910390f35b60007f80ac58cd000000000000000000000000000000000000000000000000000000007bffffffffffffffffffffffffffffffffffffffffffffffffffffffff1916827bffffffffffffffffffffffffffffffffffffffffffffffffffffffff1916148061060257507f5b5e139f000000000000000000000000000000000000000000000000000000007bffffffffffffffffffffffffffffffffffffffffffffffffffffffff1916827bffffffffffffffffffffffffffffffffffffffffffffffffffffffff1916145b80610612575061061182611232565b5b9050919050565b60076020528060005260406000206000915090505481565b60606000805461064090613019565b80601f016020809104026020016040519081016040528092919081815260200182805461066c90613019565b80156106b95780601f1061068e576101008083540402835291602001916106b9565b820191906000526020600020905b81548152906001019060200180831161069c57829003601f168201915b5050505050905090565b60006106ce8261129c565b61070d576040517f08c379a000000000000000000000000000000000000000000000000000000000815260040161070490612cf9565b60405180910390fd5b6004600083815260200190815260200160002060009054906101000a900473ffffffffffffffffffffffffffffffffffffffff169050919050565b600061075382610cfa565b90508073ffffffffffffffffffffffffffffffffffffffff168373ffffffffffffffffffffffffffffffffffffffff1614156107c4576040517f08c379a00000000000000000000000000000000000000000000000000000000081526004016107bb90612d59565b60405180910390fd5b8073ffffffffffffffffffffffffffffffffffffffff166107e3611308565b73ffffffffffffffffffffffffffffffffffffffff16148061081257506108118161080c611308565b61119e565b5b610851576040517f08c379a000000000000000000000000000000000000000000000000000000000815260040161084890612c59565b60405180910390fd5b61085b8383611310565b505050565b6000339050600061087084610cfa565b9050600061087d84610cfa565b90508173ffffffffffffffffffffffffffffffffffffffff163373ffffffffffffffffffffffffffffffffffffffff1614806108e457508073ffffffffffffffffffffffffffffffffffffffff163373ffffffffffffffffffffffffffffffffffffffff16145b610923576040517f08c379a000000000000000000000000000000000000000000000000000000000815260040161091a90612b99565b60405180910390fd5b8173ffffffffffffffffffffffffffffffffffffffff168373ffffffffffffffffffffffffffffffffffffffff16141561097257610962828287610a6b565b61096d818386610a6b565b6109be565b8073ffffffffffffffffffffffffffffffffffffffff168373ffffffffffffffffffffffffffffffffffffffff1614156109bd576109b1818386610a6b565b6109bc828287610a6b565b5b5b5050505050565b60066020528060005260406000206000915090508060000180546109e890613019565b80601f0160208091040260200160405190810160405280929190818152602001828054610a1490613019565b8015610a615780601f10610a3657610100808354040283529160200191610a61565b820191906000526020600020905b815481529060010190602001808311610a4457829003601f168201915b5050505050905081565b610a7c610a76611308565b826113c9565b610abb576040517f08c379a0000000000000000000000000000000000000000000000000000000008152600401610ab290612d99565b60405180910390fd5b610ac68383836114a7565b505050565b6000600760008381526020019081526020016000205411610b21576040517f08c379a0000000000000000000000000000000000000000000000000000000008152600401610b1890612d79565b60405180910390fd5b6000600760008381526020019081526020016000205490506000610b4483610cfa565b9050813411610b88576040517f08c379a0000000000000000000000000000000000000000000000000000000008152600401610b7f90612d39565b60405180910390fd5b610b93813385610a6b565b6000610b9e8261170e565b90508073ffffffffffffffffffffffffffffffffffffffff166108fc849081150290604051600060405180830381858888f19350505050158015610be6573d6000803e3d6000fd5b5082341115610c42573373ffffffffffffffffffffffffffffffffffffffff166108fc8434610c159190612f2f565b9081150290604051600060405180830381858888f19350505050158015610c40573d6000803e3d6000fd5b505b50505050565b3373ffffffffffffffffffffffffffffffffffffffff16610c6883610cfa565b73ffffffffffffffffffffffffffffffffffffffff1614610cbe576040517f08c379a0000000000000000000000000000000000000000000000000000000008152600401610cb590612b59565b60405180910390fd5b8060076000848152602001908152602001600020819055505050565b610cf583838360405180602001604052806000815250610f62565b505050565b6000806002600084815260200190815260200160002060009054906101000a900473ffffffffffffffffffffffffffffffffffffffff169050600073ffffffffffffffffffffffffffffffffffffffff168173ffffffffffffffffffffffffffffffffffffffff161415610da3576040517f08c379a0000000000000000000000000000000000000000000000000000000008152600401610d9a90612c99565b60405180910390fd5b80915050919050565b60008073ffffffffffffffffffffffffffffffffffffffff168273ffffffffffffffffffffffffffffffffffffffff161415610e1d576040517f08c379a0000000000000000000000000000000000000000000000000000000008152600401610e1490612c79565b60405180910390fd5b600360008373ffffffffffffffffffffffffffffffffffffffff1673ffffffffffffffffffffffffffffffffffffffff168152602001908152602001600020549050919050565b606060018054610e7390613019565b80601f0160208091040260200160405190810160405280929190818152602001828054610e9f90613019565b8015610eec5780601f10610ec157610100808354040283529160200191610eec565b820191906000526020600020905b815481529060010190602001808311610ecf57829003601f168201915b5050505050905090565b6000604051806020016040528084815250905080600660008481526020019081526020016000206000820151816000019080519060200190610f39929190611e5f565b50905050610f473383611718565b505050565b610f5e610f57611308565b83836118f2565b5050565b610f73610f6d611308565b836113c9565b610fb2576040517f08c379a0000000000000000000000000000000000000000000000000000000008152600401610fa990612d99565b60405180910390fd5b610fbe84848484611a5f565b50505050565b6060610fcf8261129c565b61100e576040517f08c379a000000000000000000000000000000000000000000000000000000000815260040161100590612d19565b60405180910390fd5b6000611018611abb565b905060008151116110385760405180602001604052806000815250611063565b8061104284611ad2565b604051602001611053929190612a91565b6040516020818303038152906040525b915050919050565b606060066000838152602001908152602001600020600001805461108e90613019565b80601f01602080910402602001604051908101604052809291908181526020018280546110ba90613019565b80156111075780601f106110dc57610100808354040283529160200191611107565b820191906000526020600020905b8154815290600101906020018083116110ea57829003601f168201915b50505050509050919050565b600061111e82610cfa565b90508073ffffffffffffffffffffffffffffffffffffffff163373ffffffffffffffffffffffffffffffffffffffff161461118e576040517f08c379a000000000000000000000000000000000000000000000000000000000815260040161118590612cb9565b60405180910390fd5b611199818484610a6b565b505050565b6000600560008473ffffffffffffffffffffffffffffffffffffffff1673ffffffffffffffffffffffffffffffffffffffff16815260200190815260200160002060008373ffffffffffffffffffffffffffffffffffffffff1673ffffffffffffffffffffffffffffffffffffffff16815260200190815260200160002060009054906101000a900460ff16905092915050565b60007f01ffc9a7000000000000000000000000000000000000000000000000000000007bffffffffffffffffffffffffffffffffffffffffffffffffffffffff1916827bffffffffffffffffffffffffffffffffffffffffffffffffffffffff1916149050919050565b60008073ffffffffffffffffffffffffffffffffffffffff166002600084815260200190815260200160002060009054906101000a900473ffffffffffffffffffffffffffffffffffffffff1673ffffffffffffffffffffffffffffffffffffffff1614159050919050565b600033905090565b816004600083815260200190815260200160002060006101000a81548173ffffffffffffffffffffffffffffffffffffffff021916908373ffffffffffffffffffffffffffffffffffffffff160217905550808273ffffffffffffffffffffffffffffffffffffffff1661138383610cfa565b73ffffffffffffffffffffffffffffffffffffffff167f8c5be1e5ebec7d5bd14f71427d1e84f3dd0314c0f7b2291e5b200ac8c7c3b92560405160405180910390a45050565b60006113d48261129c565b611413576040517f08c379a000000000000000000000000000000000000000000000000000000000815260040161140a90612c39565b60405180910390fd5b600061141e83610cfa565b90508073ffffffffffffffffffffffffffffffffffffffff168473ffffffffffffffffffffffffffffffffffffffff161480611460575061145f818561119e565b5b8061149e57508373ffffffffffffffffffffffffffffffffffffffff16611486846106c3565b73ffffffffffffffffffffffffffffffffffffffff16145b91505092915050565b8273ffffffffffffffffffffffffffffffffffffffff166114c782610cfa565b73ffffffffffffffffffffffffffffffffffffffff161461151d576040517f08c379a000000000000000000000000000000000000000000000000000000000815260040161151490612bb9565b60405180910390fd5b600073ffffffffffffffffffffffffffffffffffffffff168273ffffffffffffffffffffffffffffffffffffffff16141561158d576040517f08c379a000000000000000000000000000000000000000000000000000000000815260040161158490612bf9565b60405180910390fd5b611598838383611c7f565b6115a3600082611310565b6001600360008573ffffffffffffffffffffffffffffffffffffffff1673ffffffffffffffffffffffffffffffffffffffff16815260200190815260200160002060008282546115f39190612f2f565b925050819055506001600360008473ffffffffffffffffffffffffffffffffffffffff1673ffffffffffffffffffffffffffffffffffffffff168152602001908152602001600020600082825461164a9190612ea8565b92505081905550816002600083815260200190815260200160002060006101000a81548173ffffffffffffffffffffffffffffffffffffffff021916908373ffffffffffffffffffffffffffffffffffffffff160217905550808273ffffffffffffffffffffffffffffffffffffffff168473ffffffffffffffffffffffffffffffffffffffff167fddf252ad1be2c89b69c2b068fc378daa952ba7f163c4a11628f55a4df523b3ef60405160405180910390a4611709838383611c84565b505050565b6000819050919050565b600073ffffffffffffffffffffffffffffffffffffffff168273ffffffffffffffffffffffffffffffffffffffff161415611788576040517f08c379a000000000000000000000000000000000000000000000000000000000815260040161177f90612cd9565b60405180910390fd5b6117918161129c565b156117d1576040517f08c379a00000000000000000000000000000000000000000000000000000000081526004016117c890612bd9565b60405180910390fd5b6117dd60008383611c7f565b6001600360008473ffffffffffffffffffffffffffffffffffffffff1673ffffffffffffffffffffffffffffffffffffffff168152602001908152602001600020600082825461182d9190612ea8565b92505081905550816002600083815260200190815260200160002060006101000a81548173ffffffffffffffffffffffffffffffffffffffff021916908373ffffffffffffffffffffffffffffffffffffffff160217905550808273ffffffffffffffffffffffffffffffffffffffff16600073ffffffffffffffffffffffffffffffffffffffff167fddf252ad1be2c89b69c2b068fc378daa952ba7f163c4a11628f55a4df523b3ef60405160405180910390a46118ee60008383611c84565b5050565b8173ffffffffffffffffffffffffffffffffffffffff168373ffffffffffffffffffffffffffffffffffffffff161415611961576040517f08c379a000000000000000000000000000000000000000000000000000000000815260040161195890612c19565b60405180910390fd5b80600560008573ffffffffffffffffffffffffffffffffffffffff1673ffffffffffffffffffffffffffffffffffffffff16815260200190815260200160002060008473ffffffffffffffffffffffffffffffffffffffff1673ffffffffffffffffffffffffffffffffffffffff16815260200190815260200160002060006101000a81548160ff0219169083151502179055508173ffffffffffffffffffffffffffffffffffffffff168373ffffffffffffffffffffffffffffffffffffffff167f17307eab39ab6107e8899845ad3d59bd9653f200f220920489ca2b5937696c3183604051611a529190612b1c565b60405180910390a3505050565b611a6a8484846114a7565b611a7684848484611c89565b611ab5576040517f08c379a0000000000000000000000000000000000000000000000000000000008152600401611aac90612b79565b60405180910390fd5b50505050565b606060405180602001604052806000815250905090565b60606000821415611b1a576040518060400160405280600181526020017f30000000000000000000000000000000000000000000000000000000000000008152509050611c7a565b600082905060005b60008214611b4c578080611b359061304b565b915050600a82611b459190612efe565b9150611b22565b60008167ffffffffffffffff811115611b8e577f4e487b7100000000000000000000000000000000000000000000000000000000600052604160045260246000fd5b6040519080825280601f01601f191660200182016040528015611bc05781602001600182028036833780820191505090505b5090505b60008514611c7357600182611bd99190612f2f565b9150600a85611be89190613094565b6030611bf49190612ea8565b60f81b818381518110611c30577f4e487b7100000000000000000000000000000000000000000000000000000000600052603260045260246000fd5b60200101907effffffffffffffffffffffffffffffffffffffffffffffffffffffffffffff1916908160001a905350600a85611c6c9190612efe565b9450611bc4565b8093505050505b919050565b505050565b505050565b6000611caa8473ffffffffffffffffffffffffffffffffffffffff16611e20565b15611e13578373ffffffffffffffffffffffffffffffffffffffff1663150b7a02611cd3611308565b8786866040518563ffffffff1660e01b8152600401611cf59493929190612ad0565b602060405180830381600087803b158015611d0f57600080fd5b505af1925050508015611d4057506040513d601f19601f82011682018060405250810190611d3d919061220b565b60015b611dc3573d8060008114611d70576040519150601f19603f3d011682016040523d82523d6000602084013e611d75565b606091505b50600081511415611dbb576040517f08c379a0000000000000000000000000000000000000000000000000000000008152600401611db290612b79565b60405180910390fd5b805181602001fd5b63150b7a0260e01b7bffffffffffffffffffffffffffffffffffffffffffffffffffffffff1916817bffffffffffffffffffffffffffffffffffffffffffffffffffffffff191614915050611e18565b600190505b949350505050565b6000808273ffffffffffffffffffffffffffffffffffffffff16803b806020016040519081016040528181526000908060200190933c51119050919050565b828054611e6b90613019565b90600052602060002090601f016020900481019282611e8d5760008555611ed4565b82601f10611ea657805160ff1916838001178555611ed4565b82800160010185558215611ed4579182015b82811115611ed3578251825591602001919060010190611eb8565b5b509050611ee19190611ee5565b5090565b5b80821115611efe576000816000905550600101611ee6565b5090565b6000611f15611f1084612e05565b612dd4565b905082815260208101848484011115611f2d57600080fd5b611f38848285612fd7565b509392505050565b6000611f53611f4e84612e35565b612dd4565b905082815260208101848484011115611f6b57600080fd5b611f76848285612fd7565b509392505050565b600081359050611f8d81613192565b92915050565b600081359050611fa2816131a9565b92915050565b600081359050611fb7816131c0565b92915050565b600081519050611fcc816131c0565b92915050565b600082601f830112611fe357600080fd5b8135611ff3848260208601611f02565b91505092915050565b600082601f83011261200d57600080fd5b813561201d848260208601611f40565b91505092915050565b600081359050612035816131d7565b92915050565b60006020828403121561204d57600080fd5b600061205b84828501611f7e565b91505092915050565b6000806040838503121561207757600080fd5b600061208585828601611f7e565b925050602061209685828601611f7e565b9150509250929050565b6000806000606084860312156120b557600080fd5b60006120c386828701611f7e565b93505060206120d486828701611f7e565b92505060406120e586828701612026565b9150509250925092565b6000806000806080858703121561210557600080fd5b600061211387828801611f7e565b945050602061212487828801611f7e565b935050604061213587828801612026565b925050606085013567ffffffffffffffff81111561215257600080fd5b61215e87828801611fd2565b91505092959194509250565b6000806040838503121561217d57600080fd5b600061218b85828601611f7e565b925050602061219c85828601611f93565b9150509250929050565b600080604083850312156121b957600080fd5b60006121c785828601611f7e565b92505060206121d885828601612026565b9150509250929050565b6000602082840312156121f457600080fd5b600061220284828501611fa8565b91505092915050565b60006020828403121561221d57600080fd5b600061222b84828501611fbd565b91505092915050565b6000806040838503121561224757600080fd5b600083013567ffffffffffffffff81111561226157600080fd5b61226d85828601611ffc565b925050602061227e85828601612026565b9150509250929050565b60006020828403121561229a57600080fd5b60006122a884828501612026565b91505092915050565b600080604083850312156122c457600080fd5b60006122d285828601612026565b92505060206122e385828601612026565b9150509250929050565b6122f681612f63565b82525050565b61230581612f75565b82525050565b600061231682612e65565b6123208185612e7b565b9350612330818560208601612fe6565b61233981613181565b840191505092915050565b600061234f82612e70565b6123598185612e8c565b9350612369818560208601612fe6565b61237281613181565b840191505092915050565b600061238882612e70565b6123928185612e9d565b93506123a2818560208601612fe6565b80840191505092915050565b60006123bb602783612e8c565b91507f596f752063616e27742073616c6520746865205374617220796f7520646f6e2760008301527f74206f776e6564000000000000000000000000000000000000000000000000006020830152604082019050919050565b6000612421603283612e8c565b91507f4552433732313a207472616e7366657220746f206e6f6e20455243373231526560008301527f63656976657220696d706c656d656e74657200000000000000000000000000006020830152604082019050919050565b6000612487602183612e8c565b91507f596f7520646f206e6f742068617665206f72206f776e20616e7920746f6b656e60008301527f73000000000000000000000000000000000000000000000000000000000000006020830152604082019050919050565b60006124ed602583612e8c565b91507f4552433732313a207472616e736665722066726f6d20696e636f72726563742060008301527f6f776e65720000000000000000000000000000000000000000000000000000006020830152604082019050919050565b6000612553601c83612e8c565b91507f4552433732313a20746f6b656e20616c7265616479206d696e746564000000006000830152602082019050919050565b6000612593602483612e8c565b91507f4552433732313a207472616e7366657220746f20746865207a65726f2061646460008301527f72657373000000000000000000000000000000000000000000000000000000006020830152604082019050919050565b60006125f9601983612e8c565b91507f4552433732313a20617070726f766520746f2063616c6c6572000000000000006000830152602082019050919050565b6000612639602c83612e8c565b91507f4552433732313a206f70657261746f7220717565727920666f72206e6f6e657860008301527f697374656e7420746f6b656e00000000000000000000000000000000000000006020830152604082019050919050565b600061269f603883612e8c565b91507f4552433732313a20617070726f76652063616c6c6572206973206e6f74206f7760008301527f6e6572206e6f7220617070726f76656420666f7220616c6c00000000000000006020830152604082019050919050565b6000612705602a83612e8c565b91507f4552433732313a2062616c616e636520717565727920666f7220746865207a6560008301527f726f2061646472657373000000000000000000000000000000000000000000006020830152604082019050919050565b600061276b602983612e8c565b91507f4552433732313a206f776e657220717565727920666f72206e6f6e657869737460008301527f656e7420746f6b656e00000000000000000000000000000000000000000000006020830152604082019050919050565b60006127d1603583612e8c565b91507f53656e646572206d757374206f776e206f72206861766520612073746172207460008301527f6f2062652061626c6520746f207472616e7366657200000000000000000000006020830152604082019050919050565b6000612837602083612e8c565b91507f4552433732313a206d696e7420746f20746865207a65726f20616464726573736000830152602082019050919050565b6000612877602c83612e8c565b91507f4552433732313a20617070726f76656420717565727920666f72206e6f6e657860008301527f697374656e7420746f6b656e00000000000000000000000000000000000000006020830152604082019050919050565b60006128dd602f83612e8c565b91507f4552433732314d657461646174613a2055524920717565727920666f72206e6f60008301527f6e6578697374656e7420746f6b656e00000000000000000000000000000000006020830152604082019050919050565b6000612943601d83612e8c565b91507f596f75206e65656420746f206861766520656e6f7567682045746865720000006000830152602082019050919050565b6000612983602183612e8c565b91507f4552433732313a20617070726f76616c20746f2063757272656e74206f776e6560008301527f72000000000000000000000000000000000000000000000000000000000000006020830152604082019050919050565b60006129e9601e83612e8c565b91507f54686520537461722073686f756c6420626520757020666f722073616c6500006000830152602082019050919050565b6000612a29603183612e8c565b91507f4552433732313a207472616e736665722063616c6c6572206973206e6f74206f60008301527f776e6572206e6f7220617070726f7665640000000000000000000000000000006020830152604082019050919050565b612a8b81612fcd565b82525050565b6000612a9d828561237d565b9150612aa9828461237d565b91508190509392505050565b6000602082019050612aca60008301846122ed565b92915050565b6000608082019050612ae560008301876122ed565b612af260208301866122ed565b612aff6040830185612a82565b8181036060830152612b11818461230b565b905095945050505050565b6000602082019050612b3160008301846122fc565b92915050565b60006020820190508181036000830152612b518184612344565b905092915050565b60006020820190508181036000830152612b72816123ae565b9050919050565b60006020820190508181036000830152612b9281612414565b9050919050565b60006020820190508181036000830152612bb28161247a565b9050919050565b60006020820190508181036000830152612bd2816124e0565b9050919050565b60006020820190508181036000830152612bf281612546565b9050919050565b60006020820190508181036000830152612c1281612586565b9050919050565b60006020820190508181036000830152612c32816125ec565b9050919050565b60006020820190508181036000830152612c528161262c565b9050919050565b60006020820190508181036000830152612c7281612692565b9050919050565b60006020820190508181036000830152612c92816126f8565b9050919050565b60006020820190508181036000830152612cb28161275e565b9050919050565b60006020820190508181036000830152612cd2816127c4565b9050919050565b60006020820190508181036000830152612cf28161282a565b9050919050565b60006020820190508181036000830152612d128161286a565b9050919050565b60006020820190508181036000830152612d32816128d0565b9050919050565b60006020820190508181036000830152612d5281612936565b9050919050565b60006020820190508181036000830152612d7281612976565b9050919050565b60006020820190508181036000830152612d92816129dc565b9050919050565b60006020820190508181036000830152612db281612a1c565b9050919050565b6000602082019050612dce6000830184612a82565b92915050565b6000604051905081810181811067ffffffffffffffff82111715612dfb57612dfa613152565b5b8060405250919050565b600067ffffffffffffffff821115612e2057612e1f613152565b5b601f19601f8301169050602081019050919050565b600067ffffffffffffffff821115612e5057612e4f613152565b5b601f19601f8301169050602081019050919050565b600081519050919050565b600081519050919050565b600082825260208201905092915050565b600082825260208201905092915050565b600081905092915050565b6000612eb382612fcd565b9150612ebe83612fcd565b9250827fffffffffffffffffffffffffffffffffffffffffffffffffffffffffffffffff03821115612ef357612ef26130c5565b5b828201905092915050565b6000612f0982612fcd565b9150612f1483612fcd565b925082612f2457612f236130f4565b5b828204905092915050565b6000612f3a82612fcd565b9150612f4583612fcd565b925082821015612f5857612f576130c5565b5b828203905092915050565b6000612f6e82612fad565b9050919050565b60008115159050919050565b60007fffffffff0000000000000000000000000000000000000000000000000000000082169050919050565b600073ffffffffffffffffffffffffffffffffffffffff82169050919050565b6000819050919050565b82818337600083830152505050565b60005b83811015613004578082015181840152602081019050612fe9565b83811115613013576000848401525b50505050565b6000600282049050600182168061303157607f821691505b6020821081141561304557613044613123565b5b50919050565b600061305682612fcd565b91507fffffffffffffffffffffffffffffffffffffffffffffffffffffffffffffffff821415613089576130886130c5565b5b600182019050919050565b600061309f82612fcd565b91506130aa83612fcd565b9250826130ba576130b96130f4565b5b828206905092915050565b7f4e487b7100000000000000000000000000000000000000000000000000000000600052601160045260246000fd5b7f4e487b7100000000000000000000000000000000000000000000000000000000600052601260045260246000fd5b7f4e487b7100000000000000000000000000000000000000000000000000000000600052602260045260246000fd5b7f4e487b7100000000000000000000000000000000000000000000000000000000600052604160045260246000fd5b6000601f19601f8301169050919050565b61319b81612f63565b81146131a657600080fd5b50565b6131b281612f75565b81146131bd57600080fd5b50565b6131c981612f81565b81146131d457600080fd5b50565b6131e081612fcd565b81146131eb57600080fd5b5056fea264697066735822122019b100977126f607dcced862f577d9697d2b977db4c1e3d1736d4e6b15216c1264736f6c63430008000033",
  "immutableReferences": {},
  "source": "// SPDX-License-Identifier: Unlicense\npragma solidity ^0.8.0;\n\n//Importing openzeppelin-solidity ERC-721 implemented Standard\nimport \"../node_modules/openzeppelin-solidity/contracts/token/ERC721/ERC721.sol\";\n\n// StarNotary Contract declaration inheritance the ERC721 openzeppelin implementation\ncontract StarNotary is ERC721 {\n\n    constructor() ERC721(\"StarNotary\", \"STRN\"){}\n\n    // Star data\n    struct Star {\n        string name;\n    }\n\n    // Implement Task 1 Add a name and symbol properties\n    \n    // name: Is a short name to your token\n    //string public name = \"StarNotary\";\n    // symbol: Is a short string like 'USD' -> 'American Dollar'\n    //string public symbol = \"STRN\";\n\n\n    // mapping the Star with the Owner Address\n    mapping(uint256 => Star) public tokenIdToStarInfo;\n    // mapping the TokenId and price\n    mapping(uint256 => uint256) public starsForSale;\n    \n    // Create Star using the Struct\n    function createStar(string memory _name, uint256 _tokenId) public { // Passing the name and tokenId as a parameters\n        Star memory newStar = Star(_name); // Star is an struct so we are creating a new Star\n        tokenIdToStarInfo[_tokenId] = newStar; // Creating in memory the Star -> tokenId mapping\n        _mint(msg.sender, _tokenId); // _mint assign the the star with _tokenId to the sender address (ownership)\n    }\n\n    // Putting an Star for sale (Adding the star tokenid into the mapping starsForSale, first verify that the sender is the owner)\n    function putStarUpForSale(uint256 _tokenId, uint256 _price) public {\n        require(ownerOf(_tokenId) == msg.sender, \"You can't sale the Star you don't owned\");\n        starsForSale[_tokenId] = _price;\n    }\n\n    // Function that allows you to convert an address into a payable address\n    function _make_payable(address x) internal pure returns (address payable) {\n        return payable(x);\n    }\n    \n    //Updated the code since the _transferFrom would not work\n\n    function buyStar(uint256 _tokenId) public  payable {\n        require(starsForSale[_tokenId] > 0, \"The Star should be up for sale\");\n        uint256 starCost = starsForSale[_tokenId];\n        address ownerAddress = ownerOf(_tokenId);\n        require(msg.value > starCost, \"You need to have enough Ether\");\n        transferFrom(ownerAddress, msg.sender, _tokenId); // We can't use _addTokenTo or_removeTokenFrom functions, now we have to use _transferFrom\n        address payable ownerAddressPayable = _make_payable(ownerAddress); // We need to make this conversion to be able to use transfer() function to transfer ethers\n        ownerAddressPayable.transfer(starCost);\n        if(msg.value > starCost) {\n           payable(msg.sender).transfer(msg.value - starCost);\n        }\n    }\n\n    // Implement Task 1 lookUptokenIdToStarInfo\n    function lookUptokenIdToStarInfo (uint _tokenId) public view returns (string memory) {\n        //1. You should return the Star saved in tokenIdToStarInfo mapping\n        return tokenIdToStarInfo[_tokenId].name;\n    }\n\n    // Implement Task 1 Exchange Stars function\n    function exchangeStars(uint256 _tokenId1, uint256 _tokenId2) public {\n        //1. Passing to star tokenId you will need to check if the owner of _tokenId1 or _tokenId2 is the sender\n        address sender = msg.sender;\n        //2. You don't have to check for the price of the token (star)\n        //3. Get the owner of the two tokens (ownerOf(_tokenId1), ownerOf(_tokenId2)\n        address ownerAddress1 = ownerOf(_tokenId1);\n        address ownerAddress2 = ownerOf(_tokenId2);\n        require(msg.sender == ownerAddress1 || msg.sender == ownerAddress2, \"You do not have or own any tokens\");\n        //4. Use _transferFrom function to exchange the tokens.\n        //The instructions ask me to use _transferFrom, but the ERC721 interface has transferFrom\n        if (sender == ownerAddress1){\n            //token 1 is owned by sender\n            transferFrom(ownerAddress1, ownerAddress2, _tokenId1);\n            transferFrom(ownerAddress2, ownerAddress1, _tokenId2);\n        } else if (sender == ownerAddress2){\n            // token 2 is owned by sender\n            transferFrom(ownerAddress2, ownerAddress1, _tokenId2);\n            transferFrom(ownerAddress1, ownerAddress2, _tokenId1);\n        }\n    }\n\n    // Implement Task 1 Transfer Stars\n    function transferStar(address _to1, uint256 _tokenId) public {\n        //1. Check if the sender is the ownerOf(_tokenId)\n        address ownerAddress = ownerOf(_tokenId);\n        //2. Use the transferFrom(from, to, tokenId); function to transfer the Star\n        require(msg.sender == ownerAddress, \"Sender must own or have a star to be able to transfer\");\n        transferFrom(ownerAddress, _to1, _tokenId);\n    }\n}\n",
  "sourcePath": "/Web_3_excercises/CryptoStarDApp/contracts/StarNotary.sol",
  "compiler": {
    "name": "solc",
    "version": "0.8.0+commit.c7dfd78e.Emscripten.clang"
  },
  "schemaVersion": "3.4.5",
  "updatedAt": "2022-11-10T22:36:26.694Z",
  "networkType": "ethereum",
  "devdoc": {
    "kind": "dev",
    "methods": {
      "approve(address,uint256)": {
        "details": "See {IERC721-approve}."
      },
      "balanceOf(address)": {
        "details": "See {IERC721-balanceOf}."
      },
      "getApproved(uint256)": {
        "details": "See {IERC721-getApproved}."
      },
      "isApprovedForAll(address,address)": {
        "details": "See {IERC721-isApprovedForAll}."
      },
      "name()": {
        "details": "See {IERC721Metadata-name}."
      },
      "ownerOf(uint256)": {
        "details": "See {IERC721-ownerOf}."
      },
      "safeTransferFrom(address,address,uint256)": {
        "details": "See {IERC721-safeTransferFrom}."
      },
      "safeTransferFrom(address,address,uint256,bytes)": {
        "details": "See {IERC721-safeTransferFrom}."
      },
      "setApprovalForAll(address,bool)": {
        "details": "See {IERC721-setApprovalForAll}."
      },
      "supportsInterface(bytes4)": {
        "details": "See {IERC165-supportsInterface}."
      },
      "symbol()": {
        "details": "See {IERC721Metadata-symbol}."
      },
      "tokenURI(uint256)": {
        "details": "See {IERC721Metadata-tokenURI}."
      },
      "transferFrom(address,address,uint256)": {
        "details": "See {IERC721-transferFrom}."
      }
    },
    "version": 1
  },
  "userdoc": {
    "kind": "user",
    "methods": {},
    "version": 1
  }
}